:020000040000FA
:1000000080A00020214F0200056F03000D4F020069
:100010000D4F02000D4F02000D4F020000000000C6
:10002000000000000000000000000000415102003C
:100030000D4F020000000000D55002000D4F0200DD
:10004000455402001F8A0300455402004554020033
:100050004554020045540200455402004554020034
:10006000EF8903004554020045540200098A030049
:100070004554020045540200455402004554020014
:100080004554020045540200455402004554020004
:1000900045540200455402004554020045540200F4
:1000A00045540200455402004554020045540200E4
:1000B00045540200455402004554020045540200D4
:1000C00045540200455402004554020045540200C4
:0C00D00045540200455402004554020053
:1000E00070B59FED0F7B82B005460F4E01920C4616
:1000F000104686ED007B03F0ABFA019A2978686818
:1001000003F06EF8E368227A6168207803F09EFBC2
:10011000064A00233372537302B070BDAFF3008000
:100120000000000000000000981200203827002086
:100130002DE9F04F2DED068B8BB01E469DF87030EB
:1001400001939DF874309DF86C5002938B462AB34E
:100150000128144625D028B100200BB0BDEC068B39
:10016000BDE8F08F002D00F08E82DDED1A7AB8EE3A
:10017000E77A07EE905AF8EE677AB6EE006AC7EEB5
:10018000276A9FED9F7A66EE867A67EE877ACBEDD7
:10019000007A0BB0BDEC068BBDE8F08F012806ACF1
:1001A000D9D1984D4FF480520021284638F04AFFAB
:1001B0004FF4A0729448002138F044FF05F52077F1
:1001C00033462A462E4693EDF06AD3ED507AD3EDAE
:1001D000A06A93ED007A67EEC67A0433E6EE877A7A
:1001E000083242ED027A53ED017A93EDEF6AD3EDD6
:1001F0009F6A93ED4F7A67EE867AE6EE877A42ED54
:10020000017A9742DFD1804B03939A4603F5A07899
:100210003346DFF8F0919FED7D8A264654469A4694
:1002200006E084ED008A0434A04509F1080918D0DD
:10023000D9ED000AD9ED017AF5EE400AF1EE10FA97
:10024000B0EE670A04D1F5EE407AF1EE10FAE8D08C
:1002500035F024FF043404ED010AA04509F1080932
:10026000E6D13446039BDFED696A9FED696ADFEDF5
:10027000695A694A56464FF0000806E077EEA67ABA
:10028000C0ED007A88469A4221D0B3EC017AB4EEF0
:10029000667AF1EE10FAF6D0D3ED007A5F49F4EE0B
:1002A000667AF1EE10FA01EB880008F10101EAD05C
:1002B00077EEC77AF4EEC67AF1EE10FADED4F4EEF9
:1002C000E57AF1EE10FAA8BF77EEE67AD8E79FED6F
:1002D000548A96ED016AD6ED006A4A4BB0EE485A50
:1002E0000122D3ED035AD3ED024A65EEA67A25EE3C
:1002F000867AE4EEC67A02324F2A93ED056AA4EEBE
:10030000A67A03F11003D3ED006A65EE863A24EE77
:10031000864AE4EEA63AF0EE444AE6EEE54A37EEC7
:10032000055A37EE888A35EE235A38EE248AD8D11A
:100330003C4B53ED025AD3ED017A53ED016A93ED34
:10034000006A26EEA77A65EEA77AA6EE257A08332C
:100350009F42E6EE667A35EE075A38EE278AE8D1F4
:1003600015EE100A1BF0DEFB41EC190B18EE100A1B
:100370001BF0D8FBB0EE491AF0EE691A41EC100BF5
:1003800021F086F91AA3D3E9002351EC100B1BF0DE
:1003900021FC19A3D3E9002301F100411BF044FD26
:1003A0001BF0B2FE07EE900AF5EEC07AF1EE10FAFD
:1003B00048BFDFED1B7A5FEA5803CBED017A039368
:1003C0004CD01846A146404545D2C0EB8076134C30
:1003D000B600A8EB000E4FEA800A4FF0000CBCF10B
:1003E000000F614631DB0AEB0402234624E000BF24
:1003F00000000000A3E1B14100000060ECF767419C
:100400009A99993E2829002028390020DB0FC940FD
:10041000DB0F49C0DB0F4940643A0020EC27002085
:1004200000000000A02B0020091A83ED007AC2ED25
:10043000007A3344324408D492ED007AD3ED007A46
:10044000B4EEE77AF1EE10FAEEDB0CF1010CE645C2
:1004500004F10404C3D14008B5D14C46B54B039A0E
:1004600018F0010F03EB8203D3ED007A07D153EDAF
:10047000016A77EEA67AB6EE007A67EE877A9FED8C
:10048000AE7ADFEDAE6ADFEDAE0A27EE677AB2EE46
:10049000040AC7EE267A9DED017AF5EEC07AB8EE31
:1004A000478A9FEDA87AF1EE10FA38EE478A48BFE6
:1004B000DFEDA57AC8EE200AC4ED007A21F0E0F95C
:1004C000DFEDA20A84ED030AC8EE200AB2EE040AA8
:1004D00021F0D6F9F3EE040A84ED020AC8EE200AF0
:1004E000B2EE040A21F0CCF9029B8BED020A63B153
:1004F0001E99974B1F9A51F8040B1860083352F855
:10050000040B43F8040C9F42F5D1DFF84C9291485C
:10051000A9F500610F46012300222FF06DFE4FF078
:10052000000A3E46B84608E038F0E5FE043707ED1D
:10053000010AB94508F1080813D098ED010AD8ED71
:10054000007A20EE000AA7EEA70AB5EEC00AF1EE87
:1005500010FAE9DAC7F800A00437B94508F108082D
:10056000EBD17D4BA3F5806053F8041D2A6845F854
:10057000041BA8421A60F7D104AB4FF40071744811
:1005800005AA2FF019F80499744BB1F5FF7F00F01C
:100590005E819DED056A93ED008A0020F0EE046A0D
:1005A0004FF4FF7540F2FF1206E0914276D0012031
:1005B0001546B0EE678A1A4606EB8203D3ED007A41
:1005C000F4EEC87A531CF1EE10FAC3F30803ECD52D
:1005D00028EE267A531CB4EEC67AF1EE10FAC3F375
:1005E000080359DD531CC3F30803002854D0B5F5A4
:1005F000FF7F2F46C0F0BC806B1CC3F3080307EEDF
:10060000903AF8EEE77A002F4FD1554A92ED006A02
:10061000B4EEC68A06EB8505F1EE10FAD5ED016A57
:1006200040DBF4EEC86AF1EE10FA3BD836EE267ADB
:10063000F1EE005A37EE077A36EEC66A98EE257A62
:10064000F0EE476A86EE267AB3F5FF7F5BDB454B1B
:10065000CBF80030DBED017A9FED437AF0EEE76AEC
:10066000F4EE476AF1EE10FA09D9D4ED007AF0EE13
:10067000E76AF4EE476AF1EE10FA00F2E380CBEDA0
:10068000037A002069E500232846CBF800300BB040
:10069000BDEC068BBDE8F08F914289D1B0EE678A40
:1006A0000D46A4E79FED287ACEE706EB850212ED12
:1006B000016A40F2FF129742AAD1B4EEC86AF1EE85
:1006C00010FAD6ED006AACD9DFED1F6A9FED1A7AF9
:1006D00077EEA67ADFED256A67EE877A87EEA67A4F
:1006E000DFED216A8BED007AF0EEC77AF4EE667AE0
:1006F000F1EE10FAAED800208BED037A0BB0BDEC12
:10070000068BBDE8F08F77EE277A9FED0B7A9FED91
:10071000176ADFED0D6A67EE877A87EE867AB4EEA8
:10072000E67AF1EE10FADBD5B0EE667ACBED006A30
:10073000E1E700BFEC270020180D8F4D63BF3F4B52
:10074000000030420000204200000000000008428B
:100750002829002094C103002831002020310020E6
:10076000243100200000C07FFFFF7F7F0024744EF3
:10077000AA46F0EE488AB2EE049ABAF1000F56D0BB
:100780000AF1FF3878EEA87A18EE900AF4EEC87AEB
:10079000F1EE10FA3ADC1BF0C5F906EB880341ECE8
:1007A0001A0B18681BF0BEF930A3D3E900231BF025
:1007B00011FA02460B4651EC1A0B1BF09BFC28BBAE
:1007C000AA4586BF05F50073A3EB0A03A5EB0A0350
:1007D000072B0ED9AA452DDD40F2F91757456FF4C6
:1007E000FC73B8BF57461F4406EB870393ED008A9E
:1007F0003D467B1C5A42C2F30802C3F3080358BFAC
:10080000534207EE903AF8EEE77AFCE668EE898A02
:10081000F4EEC88AF1EE10FAD2DDA84506EB8803A3
:10082000CED0C246D3ED008ABAF1000FA8D140F273
:10083000FF18A7E70AF1070706EB870393ED008A85
:100840003D46D6E700230220CBF80C3085E493ED3B
:10085000008A13ED016ADFED047A0D4640F2FF13C2
:10086000D6E600BFAFF300800080FF439A999999C4
:100870009999F13F00000000294B10B50022294C46
:10088000C3F84825C3F84425C3F84025C3F84C25D0
:1008900016F02EFA17F092F894F86D3023B11AF092
:1008A000CBFF78BB84F86D0000201AF0D1FF70BB3D
:1008B000E26C1D491A4B42F044629FED177B42F4F3
:1008C0000032C1F80825194AC3F848050221E0643E
:1008D000C3F844052076C3F8400584ED107BC3F8C7
:1008E0004C05C3F84801C3F84401C3F84001C3F8FC
:1008F0004C01C2F88010BFF34F8FBFF36F8FC2F867
:10090000801110BD40F25D513E2004F0CDFA4FF44D
:10091000AC613E2004F0C8FA0000000000000000B6
:1009200000800040501E002000F0014000E100E087
:10093000FFF7D6BB01F0D0BF00B585B0CDE90210FE
:10094000CDE9003202F08AFE02F076FC03F02CF8CA
:1009500002F0D6FCDDE90032DDE9021005B05DF8F9
:1009600004EB02F0E5BA00BF2DE9F04F2DED028B4C
:10097000002585B0D0F80090958217461688039020
:10098000019102F0A5FE99F808100198A1F1020169
:10099000B1FA81F1490902F0EFFE02F0D5FE02F052
:1009A0009DFC03F04FF8BC8A99F80030A34264D94B
:1009B000A6F1A00208EE102AA6F5247208EE902AED
:1009C000019502952E46BA46D9F8048004EB8404BA
:1009D000374608EB8406AB46707802F04DF918F8FC
:1009E000240002F043F9707800F0CCF899F8083050
:1009F000012B05465ED0022B00F08D8002F0E4FC56
:100A000018EE100A02F096FEBBF1000F70D0002F16
:100A100049D0DBF8083013B1394650469847002DCD
:100A200069D06B6813B1314650469847002F3ED0CD
:100A30007B78002B3BD17378002B38D0039B1B7A3B
:100A4000002B77D002F0C0FE1DB12B680BB15046D1
:100A5000984702F081FE002858D14FF00103B3708F
:100A6000BAF814400134A4B2AAF8144099F800303E
:100A70009C42A9D35746804672D04FF0000802F03E
:100A80004BFB89F8090002F017FC02F03DFE02F072
:100A90001FFE02F037F802F053FC404605B0BDECF3
:100AA000028BBDE8F08F5DB36B68002BBBD102F009
:100AB0008BFECAE77378002B37D102F033FE029B1E
:100AC0008BB3019A801A90FBF3F46442019BE01A05
:100AD00002F030FE18EE900A02F060FD019402F080
:100AE00073FC18EE100A02F025FEBBF1000F8ED148
:100AF000002D96D127B17B7813B97378002B9DD147
:100B000002F062FE02F028FE0028A6D0737803B33C
:100B10004FF00208B3E77378022B17D018EE900A53
:100B200002F056FD6AE71C46D0E718F8240002F0F0
:100B3000E5F8C2E702F000FB7F280ED002F0D2FAFF
:100B400002F050F9029002F07DFF7BE702F03AF8E4
:100B5000E4E702F0F1FA7F28DAD14FF001088EE7DE
:100B6000002D8AD0AB68002B87D031463846984795
:100B700085E700BF024B4FF40C7000FB013070475B
:100B8000F8230020024B00EB400003EB800070478D
:100B90002826002000B50346012B83B0084604D068
:100BA000022B11D003B05DF804FB019100F0B8FAFC
:100BB000019800F009FD019800F096F9019803B042
:100BC0005DF804EB00F0CCBF019100F0BFFA019892
:100BD00000F02AFD019800F09DF9019803B05DF83E
:100BE00004EB01F00FB800BF70B515460E46044681
:100BF00005220021284638F025FA5EB106EB86066C
:100C0000204604EB860241786B5C1430013382424B
:100C10006B54F8D170BD00BF30B5CB7A002B1546B0
:100C200083B00C460BBF4FF444724FF4F8724FF48C
:100C300030734FF4D073042852D8DFE800F0192045
:100C4000262F0300002D46D001AB0DF103022846EC
:100C5000217B00F063FF9DF80330A08845F6A07269
:100C600002FB03F300EB430000F5496003B030BD25
:100C7000A0881044184400F5BE6003B030BDA088C1
:100C800010441844503003B030BD207B70B96388E5
:100C9000E08800EB8300A03003B030BD6388A088FB
:100CA00000EB430000F5326003B030BD02F016FFE8
:100CB00063882589E488411E00FB033205FB01F1AE
:100CC00053185033234413440B44F03300EBC0005B
:100CD00003EB4010CAE77846714602F011FFB3E714
:100CE0000020C3E770B5C37A2C4A0446B3FA83F3F5
:100CF000A0205B09137002F01DFD02F093FC02F0CE
:100D0000FFFA02F021FC02F05FFDE37A244A002B97
:100D1000A3880CBF4FF430704FF4D07003441360BD
:100D20000DBF4FF44C764FF4F8754FF404764FF442
:100D3000447502F0FFFC02F0DDFB02F045FD50209F
:100D400002F0F8FC02F054FD02F03EFDA088A0F590
:100D5000247002F0EFFC02F065FC02F011FC02F0DE
:100D600033FD4FF4247002F0E5FC02F0FBFB02F0CF
:100D70002BFDE37A002B0BBF6FF01F0400243046DD
:100D8000284602F0D7FC02F0B5FB02F01DFD20461C
:100D900002F0D0FCBDE8704002F07EB82A47002087
:100DA0006426002070B5C37A294A0446B3FA83F357
:100DB0005B09A020137002F0BDFC02F033FC02F0CE
:100DC0009FFA01F0E7FE02F0FFFCE37ABBBBA388C9
:100DD0004FF44C7003F5307320264FF430751D4AE4
:100DE000136002F0A7FC02F085FB02F0EDFCA08886
:100DF000A0F52470801B02F09DFC02F04DF802F07B
:100E000087FB02F0E1FC4FF4247002F093FC02F047
:100E1000EFFC02F007FC02F097FB02F0D5FC28463D
:100E200002F088FC02F066FB02F0CEFC502002F0DB
:100E300081FC02F0C9FABDE8704002F0C5BCA3888D
:100E40004FF4F87003F5D07300264FF4D075C6E761
:100E50002A4700206426002038B50D4602F0D6FC53
:100E6000044601F01FFF00B14CB94FF6FF70A88097
:100E700001F0CAFFA87101F0CDFFE87138BD144B35
:100E8000144A18681278144B201A4FF47A441B78CD
:100E900004FB00F052B1B3B1A0F52404A4F53C5416
:100EA00002F034F9201AC0F38F20E0E733B100F5E7
:100EB000240000F53C50C0F38F20D8E700F5AE00C9
:100EC00000F5CE40F7E7A0F5AE04A4F5CE44E7E781
:100ED000642600202B4700202A47002008460422D1
:100EE0000021104438F0AEB808B5064B0120187048
:100EF000FFF748FE0449054A054B0360C0E90112AB
:100F000008BD00BF2B470020DD0E0000590E000079
:100F1000E50C000008B5064B002201201A70FFF70F
:100F200031FE0449044A054B0360C0E9011208BDC3
:100F30002B470020DD0E0000590E0000A50D00001B
:100F400070B50446A020E37A002B0BBF4FF4307637
:100F50004FF4D0764FF45C754FF4147502F0EAFB51
:100F600002F0CEF902F0F0FA02F02EFC304602F068
:100F7000E1FB02F0BFFA02F027FC502002F0DAFB9E
:100F800002F022FA02F020FCA088A0F5287002F0FE
:100F9000D1FB02F0F5FA02F017FC4FF4247002F0D6
:100FA000C9FB02F0DFFA02F00FFC284602F0C2FB98
:100FB00001F098FD02F008FA02F006FC01F06CFF67
:100FC0004FF4AA6002F0B6FB02F076FB02F092FA50
:100FD000BDE8704002F0F8BBF8B5C37A3D4D002B78
:100FE00004460CBF4FF458764FF4107602F0ECF93B
:100FF00002F086F901F0B6FD01F0CCFD2B78FBB9CB
:10100000E37A002B0CBF0D276FF0180702F08AF966
:1010100002F060FA637B002B4FD101F07BFD28705A
:1010200001F03AFF02F0BAFB637B002B4ED002F0D6
:101030004FFBA088A0F5A070C01B02F07BFB16E060
:10104000E37A002B0BBF4FF474704FF4247020250B
:10105000002502F06FFB02F0B7F902F0B5FBA088A3
:10106000A0F5A070401B02F065FB01F015FF02F037
:1010700047F902F04DFA02F0A7FB4FF4A07002F01E
:1010800059FB02F061FA02F09FFB304602F052FB7E
:1010900002F09AF902F098FB4FF4A06002F04AFBCC
:1010A00002F028FA02F090FB502002F043FB02F01D
:1010B0008BF9BDE8F84002F087BB01F007FD01F0B5
:1010C000EBFE02F06BFB637B002BB0D101F038FD2F
:1010D000AFE700BF2C47002010B50C4601F002FD21
:1010E00001F0F6FE01F0ACFE6073BDE8104001F0C7
:1010F0007DBD00BF10B50C4601F086FE207301F0E7
:1011000089FEA07301F07AFE606001F0D3FD024613
:10111000A26094F90C102078BDE8104001F0A8BF3F
:1011200010B50020FFF72EFD0C220021044637F0F9
:1011300089FF0349034A044B2360C4E9011210BD2F
:10114000D9100000F5100000410F000010B500207C
:10115000FFF718FD0C220021044637F073FF054A03
:101160000548064B06492160C4E9010200221A70B5
:1011700010BD00BFF5100000D91000002C47002062
:10118000D90F00002DE9F04FDFF8789100278DB0DE
:101190000F740E4602F056FC99F80030002B00F058
:1011A000998006F104083C46BA464FF0010B01F065
:1011B00065FE211D08EB41020192023205460092B4
:1011C00001F060FEDDE900210346284600F082FDC3
:1011D00006EB440521463078FFF7CCFC02A98DF8D8
:1011E0002CA000F0C7FDB5F90C00B5F90E10BDF844
:1011F0002820BDF82A30121A5B1AAA802B8102AA75
:1012000001F004FA344401376074B5F90C2099F800
:1012100000309532B2F5957FFCB205D8B5F90E20B5
:101220009532B2F5957F01D986F810B0A342BED8A9
:10123000002B4FD0B6F9042040F60D1102F2874280
:101240008A423DD902223274012B0DD0B6F9062014
:1012500040F60D1102F287428A4238D8B6F90A20C8
:1012600002F287428A4232D806EB43020021918083
:1012700011813078009301F0A9FA2049009B096898
:10128000024649B1CDE900301D48006801F08EFAF0
:10129000019A009B104402B208F104014046CDE9D6
:1012A000003201F063FA009B012B23D0019A08F170
:1012B000060108F102000DB0BDE8F04F01F056BA8A
:1012C000B6F9082002F287428A42BBD8BCE7022264
:1012D0003274C9E70023B3803381307801F076FAA5
:1012E000064B196831B1064B18680DB0BDE8F04FD8
:1012F00001F05CBA0DB0BDE8F08F00BF6C26002095
:10130000682600202F4700202DE9F041474C064673
:10131000A02002F00FFA01F0F3FF02F093F802F0C0
:1013200053FA01F04FFC2378CBB10025DFF80081A0
:101330002F4606E002F048FA01352378EFB2BB42AF
:101340000FD9708802F0F6F92378013B9F42F1D162
:1013500098F80030002B5AD102F012F9EAE7DFF8D2
:10136000D080708802F0E6F998F80030002B59D050
:1013700002F006F902F028FA502002F0DBF902F040
:1013800023F802F021FAF088A0F5A07002F0D2F95B
:1013900002F01AF802F056FB02F016FA4FF4A070B1
:1013A00002F0C8F902F02EF902F00EFA23787BB1B0
:1013B00000252F46708802F0BDF92378013B9F423B
:1013C0001BD002F001FA01352378EFB2BB42F1D80D
:1013D000708802F0AFF901F0F7FF02F0F5F9502044
:1013E00002F0A8F902F016F902F0EEF901F074FB30
:1013F000207801280ED8BDE8F08101F0E5FF013525
:1014000002F0E2F92378EFB2BB42D3D8E0E701F073
:10141000DBFF8FE700EBC0004001BDE8F041A030EA
:1014200002F088B901F0D0FFA4E700BF2F470020E9
:1014300070260020F8B50E46164D174F0446FF21C2
:101440001022301D37F0FEFD33783B7000222A70E9
:1014500001F0CEFC114B2978024638781A60FFF76C
:1014600089FB01468C2001F0C3FB2B7801332B70E4
:1014700001F0BAFBA37A0A49012B0BBFA28AA38A07
:10148000D343DA4302F0010203F001034A700B7008
:10149000F8BD00BF2D4700202E4700206826002001
:1014A000702600202DE9F041454C0646A02002F0B0
:1014B00041F901F025FF01F073FB02F0A3F802F0FF
:1014C00083F923787BB100252F46708802F032F92A
:1014D0002378013B9F4242D002F076F90135237810
:1014E000EFB2BB42F1D8708802F024F901F06CFF32
:1014F00002F06AF9502002F01DF902F08BF802F0B8
:1015000063F9F088A0F5A07002F014F902F09AFADD
:1015100001F0FEFF02F058F94FF4A07002F00AF952
:1015200001F090FF02F050F9237813B30025DFF8A3
:1015300094802F4606E002F047F901352378EFB298
:10154000BB4218D9708802F0F5F82378013B9F421E
:10155000F1D198F8003023BB01F0CCFFEBE701F0AC
:1015600033FF013502F030F92378EFB2BB42ACD83B
:10157000B9E7DFF85080708802F0DCF898F80030A6
:10158000D3B101F0B7FF02F01FF9502002F0D2F8FA
:1015900001F01AFF02F018F92078012804D8BDE8FC
:1015A000F08101F011FFC6E700EBC0004001BDE88B
:1015B000F041A03002F0BEB801F006FFE3E700BF43
:1015C0002F4700207026002038B504460220FFF780
:1015D000D9FA0C220021054637F034FD0D490E4A98
:1015E0000E4B2B60C5E90112207B02F077FA0C4B01
:1015F00062881870012818BF2389E18808BF00237A
:10160000134400FB033301F15000064A03441B0955
:10161000136038BD35140000851100000913000067
:101620002F4700206C26002038B505460220FFF722
:10163000A9FA0C220021044637F004FD0749084AA4
:10164000084B2360C4E90112287B02F047FA0649DF
:10165000064B087000221A6038BD00BF3514000028
:1016600085110000A51400002F4700206C260020E3
:10167000704700BF70B5144B144E196000240D461E
:10168000A9220C713046214637F0DCFCC5F8054034
:1016900001F01EFC01F02EFA0D4A33461278A92102
:1016A00003F8011B0B49023A0A600B490B4A0B6015
:1016B0000B4B14701C7001F099FA3146A820BDE85C
:1016C000704001F0ABBA00BF282700207826002028
:1016D00032470020342700207426002030470020A5
:1016E000334700202DE9F04F374ADFF8ECA03749A7
:1016F000374B1468DAF8002091F800801968354BF0
:10170000DFF8D89093F800C00025002A2E4628461E
:101710001CDB02EB820304EB83035F78FFB993F9D0
:101720000C7093F90DE0BFB247EA0E470F6042B369
:101730005B78CBB90125013A4FF0000C2E46013001
:101740002A2803D0002A01F10401E2DA0EB1CAF816
:10175000002015B11F4B83F800C0BDE8F08F022FA9
:1017600013D0012F29D062B10CF1010C5FFA8CFC6F
:10177000BCFBF8F308FB13C3DBB2002BDAD0012566
:10178000DDE701264FF0FF32D9E703EB4C0B1F7C5E
:10179000BBF808E0BBF804B03F07CEF30D0E07F02E
:1017A000405747EA0E0793F811E009EA8B3B47EAF6
:1017B0008E7747EA0B070F60B9E7B3F804E09F792B
:1017C00047EA0E270F60B2E72C27002031470020A0
:1017D00074260020304700203427002000C0FF0F6F
:1017E00070B5204D4FF4A06001F0A4FF2B680BB141
:1017F000FFF778FF01F0E8FD1B4E01F0E5FF4FF425
:10180000287001F097FF01F091FE01F0DDFF45F631
:10181000902001F08FFF01F06DF901F0D5FD01F08E
:10182000D3FF3378012B1CD900244FF4A06001F0C2
:1018300081FF2B680BB1FFF755FF01F077FE01F038
:10184000C3FF45F6A02001F075FF01F053F901F048
:10185000BBFD01F0B9FF33780134E4B2013B9C4297
:10186000E3DB70BD28270020344700202DE9F04736
:10187000334A344B344E354F1578354A1C6810685E
:10188000336897F800E04FF00008C146C44617E0FF
:1018900003EB830204EB8202517819BB0168090C47
:1018A000517301681173C3B14FF00108013B4FF050
:1018B000000EC1460CF1010CBCF12A0F02D004301D
:1018C000002BE5DAB9F1000F00D03360B8F1000F5A
:1018D00001D087F800E0BDE8F0874FF001094FF034
:1018E000FF33E7E7022917D001290FD0002BF4D0EE
:1018F0000EF1010E5FFA8EFEBEFBF5F205FB12E261
:10190000D2B2002AD0D04FF00108D3E70168090A0B
:10191000918001689171E9E7016802EB4E0A41F399
:101920008D31AAF80410016841F30D01AAF80810DE
:101930000168C1F3017111740168890F5174D5E711
:101940003147002030270020342700203347002073
:10195000742600202DE9F04106464FF4A06001F006
:10196000E9FE01F031FD01F02FFF4FF4247001F08A
:10197000E1FE01F0DBFD01F027FF45F6A02001F0BC
:10198000D9FE01F0B7F801F01FFD737B002B3DD0AD
:1019900001F01AFF1F4F3B78012B29D9DFF878801F
:1019A00000244FF4A06001F0C5FED8F800504DB1FE
:1019B00001F06AFA40B32B79002B18BF03232B7177
:1019C000FFF754FF01F0B2FD01F0FEFE45F6A02046
:1019D00001F0B0FE01F08EF801F0F6FC737B4BB124
:1019E00001F0F2FE3B780134E4B2013BA342D8DCC3
:1019F000BDE8F08101F0A4F83B780134E4B2013B8A
:101A00009C42CEDBBDE8F0810323D8E701F098F8D3
:101A1000C0E700BF344700202827002010B5044647
:101A20008088A0F5F87001F085FE01F069FC01F0F6
:101A3000A7FD01F0C9FE2046FFF78CFF4FF4A06020
:101A400001F078FE124B1C6834B101F01DFAD0B9D8
:101A500003232371FFF70AFF01F05AFD01F0B4FEE2
:101A60000C4B0D4A1B78023B1360FFF7B9FE4FF495
:101A7000A06001F05FFE01F0A7FC01F03BFDBDE8B6
:101A8000104001F0A1BE2379002B18BF0323E0E72B
:101A900028270020324700203427002010B50446B4
:101AA0008088A0F5F87001F045FE01F029FC01F0F6
:101AB0002FFD01F089FEFFF793FE4FF4A06001F0C7
:101AC00039FE01F081FC01F05BFD01F07DFE104B61
:101AD000104A1B782046023B1360FFF73BFF4FF490
:101AE000A06001F027FE0C4B1C6834B101F0CCF96A
:101AF00048B903232371FFF7B9FE01F0FBFCBDE8F1
:101B0000104001F061BE2379002B18BF0323F1E7D9
:101B1000324700203427002028270020F8B505464A
:101B200008461F46164601F0D9FF2B7802240BB158
:101B300004EB83046B780BB104EB8304AB781BB12B
:101B400010FB03F004EB8004044B3C60611EC908E9
:101B5000A3FB0131490801313170F8BD19866118C4
:101B600010B5044682B0007B01F0B8FF1C4B1D4944
:101B700002461D481A70097800686A46FFF734F873
:101B8000207B01F0ABFF9DF8003002220BB102EB8D
:101B900083029DF801300BB102EB83029DF8023005
:101BA0001BB110FB03F002EB8002531E0F491048DB
:101BB000DB08A1FB03135B0801330E49037004200B
:101BC0000A60FEF7DFFF0C220021044637F03AFAE4
:101BD00009490A4A0A4B2360C4E9011202B010BD48
:101BE00031470020324700202C2700201986611839
:101BF00034470020242700207516000071160000CD
:101C00001D1A000010B5044682B0007B01F066FF8B
:101C10001C4B1D4902461D481A70097800686A4627
:101C2000FEF7E2FF207B01F059FF9DF80030022211
:101C30000BB102EB83029DF801300BB102EB830282
:101C40009DF802301BB110FB03F002EB8002531E23
:101C50000F491048DB08A1FB03135B0801330E4951
:101C6000037004200A60FEF78DFF0C220021044659
:101C700037F0E8F909490A4A0A4B2360C4E901121E
:101C800002B010BD31470020324700202C27002031
:101C9000198661183447002024270020751600009B
:101CA000711600009D1A000010B4074A90F800C099
:101CB000064B074C82F800C04A6840681A602060F2
:101CC0005DF8044B704700BF3247002030270020EA
:101CD0002C2700202DE9F04F33F0030646D04FF0BB
:101CE0000009844600EB8607CE46DCE900B5DCF847
:101CF0000840DCF80C804BF30B0A4BF30B3BD6444B
:101D0000D94445F30B0A45F30B354D44F2440CF12D
:101D1000100C44F30B0E44F30B342C44D64448F31C
:101D20000B05674548F30B38AE4408EB0409DCD1DA
:101D3000B34211D906F18046013E00EB8606043815
:101D400000EB830556F8040F40F30B04B54240F353
:101D50000B30A6448144F5D19EFBF3FE99FBF3F8CA
:101D6000A1F800E0A2F80080BDE8F08FB146B646C9
:101D7000DEE700BF2DE9F041D0E90062D0E902546E
:101D800046F30B0C42F30B0746F30B3642F30B32D0
:101D90006744164445F30B0C0269436945F30B3560
:101DA0002E44BC4444F30B3544F30B07BC44846914
:101DB000354442F30B0742F30B363544C26967449E
:101DC00043F30B3643F30B0C6744036A2E4444F38E
:101DD0000B0C44F30B352E44446ABC4442F30B35E0
:101DE00042F30B07BC44826A354443F30B0743F3C9
:101DF0000B363544C36A674444F30B3644F30B0C8B
:101E00006744046B2E4442F30B0C42F30B352E4413
:101E1000426BBC4443F30B3543F30B07BC44836B69
:101E2000354444F30B0744F30B363544C46B674425
:101E300042F30B3642F30B0C6744026C2E4443F31F
:101E40000B0C43F30B352E44436CBC4444F30B356D
:101E500044F30B07BC44846C354442F30B0742F354
:101E60000B363544C26C674443F30B3643F30B0C1B
:101E70006744036D2E4444F30B0C44F30B352E449E
:101E8000446DBC4442F30B3542F30B07BC44826DF6
:101E9000354443F30B0743F30B363544C36D6744B6
:101EA00044F30B3644F30B0C6744046E2E4442F3A8
:101EB0000B0C42F30B352E44426EBC4443F30B35FE
:101EC00043F30B07BC44836E354444F30B0744F3E0
:101ED0000B363544C46E674442F30B3642F30B0CA9
:101EE0006744026F2E4443F30B0C43F30B352E442F
:101EF000436FBC4444F30B3544F30B07BC44846F7D
:101F0000354442F30B0742F30B363544C26F674446
:101F100043F30B3643F30B0C674444F30B332E446B
:101F200044F30B0CD0F88050D0F884401E44BC44DD
:101F300042F30B3342F30B07BC44334445F30B0726
:101F4000D0F8886045F30B3567442B4444F30B020B
:101F500044F30B343A441C4446F30B0746F30B336B
:101F6000174423440F600B61D0E92356D0E9254282
:101F700045F30B0E45F30B3C46F30B0846F30B36CB
:101F8000D0F89C50F044B44444F30B0E44F30B36A9
:101F9000B444D0F8A040C64442F30B3642F30B08D9
:101FA000C644D0F8A420664445F30B0845F30B3C27
:101FB0006644D0F8A850F04444F30B3C44F30B0EB5
:101FC000F044D0F8AC40B44442F30B0E42F30B366D
:101FD000B444D0F8B020C64445F30B3645F30B08A3
:101FE000C644D0F8B450664444F30B0844F30B3CA9
:101FF0006644D0F8B840F04442F30B3C42F30B0E79
:10200000F044D0F8BC20B44445F30B0E45F30B3636
:10201000B444D0F8C050C64444F30B3644F30B0824
:10202000C644D0F8C440664442F30B0842F30B3C6C
:102030006644D0F8C820F04445F30B3C45F30B0E42
:10204000F044D0F8CC50B44444F30B0E44F30B36B8
:10205000B444D0F8D040C64442F30B3642F30B08E8
:10206000C644D0F8D420664445F30B0845F30B3C36
:102070006644D0F8D850F04444F30B3C44F30B0EC4
:10208000F044D0F8DC40B44442F30B0E42F30B3280
:102090009444C644D0F8E02045F30B0845F30B35D3
:1020A00005EB0C06C644D0F8E45044F30B0844F3A7
:1020B0000B3CF044D0F8E84042F30B0EB44442F33A
:1020C0000B32F044944445F30B0ED0F8EC20D0F8DA
:1020D000F06045F30B356544C64444F30B3C44F3D0
:1020E0000B08C644D0F8F440AC4442F30B0842F36A
:1020F0000B35AC44D0F8F820F04446F30B3546F3EA
:102100000B0EF044D0F8FC60654444F30B0E44F32E
:102110000B342544C644D0F8004142F30B0842F387
:102120000B3202EB050CC644D0F8042146F30B0831
:1021300046F30B35F044D0F8086144F30B0E6544C8
:1021400044F30B340EEB080C254442F30B0ED0F88D
:102150000C4142F30B322A44E644D0F8105146F3C6
:102160000B0C46F30B36E644164444F30B0CD0F844
:10217000142144F30B343444F44445F30B0645F383
:102180000B35B444254442F30B0642F30B3466444A
:102190002C444E604C6104EB030CF219D0E9466309
:1021A000D0E9485443F30B3E46F30B0843F30B07C7
:1021B00046F30B36D0F828317644474445F30B3EBE
:1021C00045F30B084744D0F82C51B64444F30B08B0
:1021D00044F30B36B644D0F83041B84443F30B36E1
:1021E00043F30B07B844D0F83431764445F30B077A
:1021F00045F30B3E7644D0F83851474444F30B3E48
:1022000044F30B084744D0F83C41B64443F30B0871
:1022100043F30B36B644D0F84031B84445F30B369F
:1022200045F30B07B844D0F84451764444F30B0708
:1022300044F30B3E7644D0F84841474443F30B3E09
:1022400043F30B084744D0F84C31B64445F30B0830
:1022500045F30B36B644D0F85051B84444F30B362E
:1022600044F30B07B844D0F85441764443F30B07CA
:1022700043F30B3E7644D0F85831474445F30B3EC8
:1022800045F30B084744D0F85C51B64444F30B08BF
:1022900044F30B36B644D0F86041B84443F30B36F0
:1022A00043F30B07B844D0F86431764445F30B0789
:1022B00045F30B3E7644D0F86851474444F30B3E57
:1022C00044F30B084744D0F86C41B64443F30B0881
:1022D00043F30B36B644D0F87031B84445F30B36AF
:1022E00045F30B07B844D0F87451764444F30B0718
:1022F00044F30B3E7644D0F87841474443F30B3E19
:1023000043F30B084744D0F87C31B64445F30B083F
:1023100045F30B36B644D0F88051B84444F30B363D
:1023200044F30B07B844D0F88441764443F30B07D9
:1023300043F30B331E444744D0F8883145F30B0870
:1023400045F30B3505EB060E4744D0F88C5144F3AA
:102350000B0844F30B36B844D0F8904143F30B0715
:10236000764443F30B3307EB080E1E4445F30B078B
:10237000D0F8943145F30B3535447744D0F8986163
:1023800044F30B0E44F30B3477442C4443F30B0E0D
:10239000D0F89C5143F30B332344BE44D0F8A04102
:1023A00046F30B0746F30B36BE441E4445F30B07BA
:1023B00045F30B337744334444F30B0544F30B34B8
:1023C0003D4423448B618D60D0E969762A44D0E98D
:1023D0006B5447F30B08634447F30B3E46F30B3C47
:1023E00046F30B07E644D0F8B461474445F30B3C91
:1023F00045F30B084744D0F8B851F44444F30B08B4
:1024000044F30B3EF444D0F8BC41B84446F30B3ED1
:1024100046F30B07B844D0F8C061E64445F30B0718
:1024200045F30B3CE644D0F8C451474444F30B3C1D
:1024300044F30B084744D0F8C841F44446F30B0872
:1024400046F30B3EF444D0F8CC61B84445F30B3E60
:1024500045F30B07B844D0F8D051E64444F30B07DA
:1024600044F30B3CE644D0F8D441474446F30B3CDC
:1024700046F30B084744D0F8D861F44445F30B0801
:1024800045F30B3EF444D0F8DC51B84444F30B3E22
:1024900044F30B07B844D0F8E041E64446F30B0799
:1024A00046F30B3CE644D0F8E461474445F30B3C6B
:1024B00045F30B084744D0F8E851F44444F30B08C3
:1024C00044F30B3EF444D0F8EC41B84446F30B3EE1
:1024D00046F30B07B844D0F8F061E64445F30B0728
:1024E00045F30B3CE644D0F8F451474444F30B3C2D
:1024F00044F30B084744D0F8F841F44446F30B0882
:1025000046F30B3EF444D0F8FC61B84445F30B3E6F
:1025100045F30B07B844D0F80052E64444F30B07E8
:1025200044F30B3CE644D0F80442474446F30B3CEA
:1025300046F30B084744D0F80862F44445F30B080F
:1025400045F30B3EF444D0F80C52B84444F30B3E30
:1025500044F30B07B844D0F81042E64446F30B07A7
:1025600046F30B3CE644D0F81462474445F30B3C79
:1025700045F30B084744D0F81852F44444F30B08D1
:1025800044F30B34A444B844D0F81C4246F30B0780
:1025900046F30B3606EB0C0E45F30B3CD0F82062ED
:1025A000B844F44445F30B0744F30B0E44F30B34E7
:1025B000D0F824524744A444D0E98A40BE4446F3AC
:1025C0000B0746F30B36BE44664445F30B0745F351
:1025D0000B353544774444F30B0644F30B342C4459
:1025E0003E4440F30B0540F30B3020443544752442
:1025F0002A44034404FB02F204FB03F3920B9B0BFB
:10260000CD60C8610A844B84BDE8F08170B500EBF1
:1026100080061368C6EBC6061446981B01EB8105BD
:1026200036F018FD63682060981B36F013FD60607B
:10263000A068801B36F00EFDE368A060981B36F0A2
:1026400009FD2369E060C5EBC505581B36F002FDA6
:1026500063692061581B36F0FDFCA3696061581B5B
:1026600036F0F8FCE369A061581B36F0F3FC2369EF
:102670002268E06193426DDBC3EB431302EB42023D
:1026800003EB8202531165696268AA425ADCC5EB0A
:10269000451502EB420205EB82025511A169A268C1
:1026A000914247DBC1EB411102EB420201EB820296
:1026B0005111E268904235DAC2EB421200EB400061
:1026C00002EB80025211AB422DBF184628461E462F
:1026D0002E4688422B4423D38E4228BF0E4690427A
:1026E0000B441BD3964228BF1646134494F824107B
:1026F0001D4A52F821109B08801B40F25C5201FBDE
:1027000000F003FB02F282422CD340F20A3202FBB9
:1027100003F383422CBF0020012070BD1046E4E784
:102720000846DCE702EB4202C0EB401000EB8202FD
:102730005211C8E7C2EB421201EB410102EB8101E9
:102740004911B6E7C2EB421205EB450502EB8505E0
:102750006D11A3E703EB4303C2EB421202EB8303C9
:102760005B1190E7022070BD0C9A030070B505461E
:10277000104616460C462CF0FFFE034630461E4619
:102780002CF0D6FEB4F900100346B5F9000003FBA7
:1027900001F200FB03FC01FB16CC00FB0623DB135C
:1027A0004FEAEC322A80238070BD00BF404201FB1B
:1027B00000F041F2C70101FB00F00028BCBF00F5AA
:1027C000FF3000F2FF104014704700BF00EB8003A1
:1027D00000EBC300400000B2704700BF70B58A88AC
:1027E000CB8886B012011B010446ADF80220488850
:1027F0000A89ADF804304B892578000112011B01CC
:10280000ADF80000ADF8062000200A88ADF80830C9
:102810000B7C0390CDE90400ADF80A208DF80C3054
:1028200075B96678D6B9A6783EBBE678002E33D166
:102830002679002E3FD105F10F00000906B070BDCA
:1028400022466946FEF7E8F92378BDF8002066784D
:1028500000FB05F502FB0355002EE4D02246694635
:102860000120FEF7D9F96378BDF8002002FB03557B
:1028700000FB0655A678002ED7D0224669460220D6
:10288000FEF7CAF9A378BDF8002002FB035500FB50
:102890000655E678002ECBD0224669460320FEF787
:1028A000BBF9E378BDF8002002FB035500FB065599
:1028B0002679002EBFD0224669460420FEF7ACF9E7
:1028C0002379BDF8002002FB035500FB065505F1F6
:1028D0000F00000906B070BD2DE9F04F85B0D2F8A9
:1028E00014C001931378D2F818E0012B02D063468C
:1028F000F4469E46B2F802809788D6881489538998
:10290000DFF8A4A14FEA08183F01360124011B019A
:10291000AAF80080AAF80270AAF80460AAF8064093
:10292000AAF8083053788AF80B3013788AF80A30FE
:10293000137C8AF80C305A4E5A4FDFF87481547861
:10294000D368C6F800E0C7F800C0C8F800302CB162
:10295000012C03D0032005B0BDE8F08FDFF84CB1A7
:10296000DFF85091CBE90001017889F80040D1B13E
:102970000024224607E0EDD8DBF80000013401789E
:10298000E2B291420FD9456802EB820305EB830363
:102990005B78042BEFD101398A42DBD1DBF80410DC
:1029A000FFF782F9E8E7007A3F49FEF7F3F8DBF832
:1029B000003002AA19785868FEF716F99DF8084009
:1029C000002C5ED19DF809B0BBF1000F4BD19DF8F2
:1029D0000AB0BBF1000F38D19DF80BB0BBF1000F6E
:1029E00025D19DF80CB0BBF1000F12D1204600F0AC
:1029F000BDFE3A68D8F8001099F800003368FDF77A
:102A00009BFF294A2948019905B0BDE8F04FFDF721
:102A1000ABBF02AA24490420FEF7FEF8BAF8002052
:102A20009DF80C3002FB034400FB0B44DEE702AAD6
:102A30001D490320FEF7F0F89DF80B30BAF800208E
:102A400002FB034400FB0B44CBE702AA1649022019
:102A5000FEF7E2F89DF80A30BAF8002002FB0344C2
:102A600000FB0B44B8E702AA0F490120FEF7D4F897
:102A70009DF80930BAF8002002FB034400FB0B4428
:102A8000A5E702AA08490020FEF7C6F89DF808301D
:102A9000BAF8002000FB04F402FB034492E700BFF5
:102AA00054270020502700203827002098120020AB
:102AB00058270020354700200249034A01230B72A2
:102AC000537370479812002038270020014B0122D1
:102AD000DA60704700100040014B01221A61704714
:102AE00000100040024B0022C3F80421704700BFD1
:102AF00000100040024B0022C3F80C21704700BFB9
:102B000000100040024B0022C3F8FC2F704700BFAA
:102B10000010004010B5094C02E000F01DFE18B98D
:102B2000D4F80431002BF8D0044BD3F80401002270
:102B3000801AC3F8042118BF012010BD0010004006
:102B400010B5074C02E000F007FE18B9D4F80C31BC
:102B5000002BF8D0024B0022C3F80C2110BD00BF9F
:102B60000010004010B5074C02E000F0F5FD18B968
:102B7000D4F80031002BF8D0024B0022C3F800211A
:102B800010BD00BF00100040014B01221A667047C3
:102B900000100040014B01229A6070470010004075
:102BA000074BD3F80825D3F8101501F00F010329BE
:102BB0000CBF01210221521AC3F80825704700BF3B
:102BC00000100040074BD3F80825D3F8101501F08A
:102BD0000F0103290CBF012102210A44C3F8082573
:102BE000704700BF00100040704700BF704700BF33
:102BF000094B10B401220024C3F8304AC3F8404AFC
:102C0000C3F8341AC3F8380AC3F8442AC3F8302A80
:102C10005DF8044B704700BF00100040114B40F0BE
:102C2000007010B40022082440F44030C3F8302172
:102C3000C3F81445C3F8180503240B48C3F83445FA
:102C4000C3F83C0540F25B60C3F83805C3F8104593
:102C5000C3F8442AC3F8302AC3F804155DF8044BBE
:102C6000704700BF0010004055555500014BC3F898
:102C70000805704700100040022809D0074B1B7858
:102C800033B1012B03D1064B0422C3F81025704742
:102C9000034B0322C3F81025704700BF37470020BD
:102CA00000100040024BD3F84004C0F300307047DE
:102CB000001000400F4B104A1B78D2F84024002B24
:102CC0000CBF01210221D000C2F30C4301D543F413
:102CD0006043094AD2F84024D20408D518B249F614
:102CE0006C3303FB00F0401101FB00F070476FF004
:102CF00000407047374700200010004010B42E4CB1
:102D00002378002B44D12D4B2D489B6840F6891227
:102D100002FB03F380FB0312632B4FEAE370C0EB6B
:102D2000621007DD274A934235DB274B4FF4FE0C38
:102D30007F2219E0254AA0F5747182FB01C202EBE3
:102D4000010CCA1722498B42C2EBAC222DDB43F6A1
:102D5000095302FB03F3002B4FEA024CB8BF0733C1
:102D600012B20CF47F0CDB10C31A1A481A49036024
:102D7000D1F88C0520F47F00C1F88C05D1F88C3592
:102D8000164843EA0C03C1F88C35012302802370F6
:102D90005DF8044B70470D4A00F5747382FB031213
:102DA0001A44DB17C3EBA222D1E70D4B4FF4000C02
:102DB0006FF07F02D8E700BF364700209027002041
:102DC0001F85EB51C0F47B01EEC8030003F0398688
:102DD0005D1081FEA0270020001000402647002043
:102DE000702FFCFF014BD868704700BF9027002070
:102DF000014B1868704700BFA0270020014B58689E
:102E0000704700BFA4270020014B1878704700BF0F
:102E1000A4270020084B094993F90020D1F8401459
:102E20007F2A06D011F4805F0CBF0220002058706A
:102E30007047022058707047A427002000100040FF
:102E40000D4BD3F80C05C0B2F42812D007D9F828DE
:102E50000CD0FC2814BF00206FF00300704703283B
:102E600006D0042814BF0020042070476FF007002C
:102E700070476FF00B00704700100040004870472B
:102E80005C2700200D207047024BD3F8000400F0AF
:102E900001007047001000400B4BD3F81C21012AA1
:102EA00005D00A4B00217F2259601A70704700211B
:102EB000D3F84825C3F81C11D3F82414034B02F0AF
:102EC0007F0259601A70704700100040A42700204C
:102ED000024B0122C3F80827704700BF00100040D2
:102EE000F0B4114B114ED3F8345AD3F8384AD3F812
:102EF000440AD3F8301A0027C3F8407A0122C3F8F5
:102F0000346A0D26C3F8386AC3F8442AC3F8302A55
:102F10001A66C3F8345AC3F8384AC3F8440AC3F8E7
:102F2000301AF0BC704700BF001000405C27002042
:102F30002DE9F843054616464348444C342288465A
:102F400000211F4636F07EF8414ADFF818E1DFF82D
:102F50001CC192E8030084E803003E4C3E483F4910
:102F6000257002F108033E4A002404800C601470AE
:102F70000FCB4FF001098CE80F00CEF8FC4FCEF8D4
:102F8000FC9F002D59D10323CEF81035354C00207D
:102F9000C4F80C8500F0D6F83B0EC4F82435330E87
:102FA00013F0800F4FEA0727C4F81C7518BF0A22D8
:102FB000C4F8283508BF05222B4B003D4FEA0626F2
:102FC00018BF0125C4F8206504211A702D060122BE
:102FD000C4F8302545F48025C4F82C154FF4403151
:102FE000C4F81455C4F81815C4F80435D4F89C3541
:102FF000102123F47C13C4F89C35C4F80827C4F8C6
:103000000012D4F8503623F44073C4F85036D4F884
:10301000503643F40073C4F85036D4F8503623F0D9
:103020000103C4F85036D4F8503600201343C4F8D6
:103030005036C4F83405BDE8F883012D04BF0423DD
:10304000CEF81035A2E700BF5C270020A42700209F
:10305000AC9903003747002026470020A027002016
:1030600036470020001000403847002090270020FD
:1030700010B4194C94F901308B4214DD6FF0004309
:103080009A4261700CD0642303FB02F1207000F5BA
:10309000166391FBF3F3C4E9012372B95042E06077
:1030A0005DF8044B70477F29FAD061686FF00043E8
:1030B0009942E8D05DF8044B7047084B0849002A54
:1030C00001FB003082EAE273A3EBE273B0FBF3F0A2
:1030D000E5DC0246E2E700BF9027002000180D8FD4
:1030E00040420F0008B5064B587800F041F8054BF8
:1030F0000549C3F80C0700224860C3F8082708BD3B
:103100009027002000100040A4270020014B587891
:1031100000F05CB89027002008B5064B93F9010039
:103120007F2805D0C0B200F03BF8C0F1070040B2E4
:1031300008BD00BF90270020014B93F901007047A4
:1031400090270020014B1870704700BF39470020BE
:10315000064B93F90030C01A1B2803DD442803DC1A
:103160001C387047002070472820704739470020DE
:10317000094B93F90030C01A1B2806DD442807DCF0
:10318000064B1C3853F8200070474FF4007070470E
:1031900040F23770704700BF394700201C9A030087
:1031A000084B93F90030C01A1B2806DD442806DCC2
:1031B000054B184410F81C0C7047162070473E2031
:1031C000704700BF39470020C09A030008B5FFF7D9
:1031D000BFFF024B53F8200008BD00BFEC9A03006C
:1031E00010B40629114C0B46A8BF06232370B9B1B1
:1031F0000F4904780C60012B12D044784C60022BEC
:103200000ED084788C60032B0AD0C478CC60042B59
:1032100006D0062B047908BF43790C6108BF4B61C7
:10322000044B1A605DF8044B704700BF3A4700201A
:10323000B0270020AC2700201B4B1A7882B310B4B3
:103240001A481B490468012303FA04F49A42C1F89E
:1032500004451FD04468022A03FA04F4C1F8044567
:1032600018D08468032A03FA04F4C1F8044511D085
:10327000C468042A03FA04F4C1F804450AD00469B6
:10328000052A03FA04F4C1F8044503D042699340C7
:10329000C1F80435074B00221A605DF8044B7047F3
:1032A000044B00221A6070473A470020B0270020E4
:1032B00000F00140C8270020064B0749D3E9002051
:1032C000012303FA02F28340C1F80825C1F808354A
:1032D000704700BFB027002000F00140064B0749AF
:1032E000D3E90020012303FA02F28340C1F8042548
:1032F000C1F80435704700BFB027002000F001403E
:10330000054B064A1B6812680549A23302F5A072F4
:1033100041F83320704700BFB0270020AC270020C1
:1033200000F00140034B044A1B680449A23342F8F1
:1033300033107047B027002000F001400411004016
:1033400010B41E4B1A781E4B4AB31C681D4904F575
:10335000117C0020012A41F82C0020D05C6804F583
:10336000117C022A41F82C0019D09C6804F5117CCC
:10337000032A41F82C0012D0DC6804F5117C042AE1
:1033800041F82C000BD01C6904F5117C052A41F88A
:103390002C0004D05A6902F5117241F82200196814
:1033A0000848012202FA01F1C0F808155B689A404A
:1033B000C0F808255DF8044B704700BF3A4700206D
:1033C000B027002000F0014010B41B481B4B0468DC
:1033D00004F1A20103EBC10100224A6018490978F7
:1033E00031B304F51174012943F8242020D0446836
:1033F00004F51174022943F8242019D0846804F5D7
:103400001174032943F8242012D0C46804F5117400
:10341000042943F824200BD0046904F5117405290C
:1034200043F8242004D0416901F5117143F82120AB
:103430005DF8044B704700BFB027002000F001404A
:103440003A47002010B41B481B4B046804F1A2014A
:1034500003EBC10100224A601849097831B304F531
:103460001174012943F8242020D0446804F5117414
:10347000022943F8242019D0846804F51174032923
:1034800043F8242012D0C46804F51174042943F8C9
:1034900024200BD0046904F51174052943F8242075
:1034A00004D0416901F5117143F821205DF8044B06
:1034B000704700BFB027002000F001403A470020CD
:1034C00010B5034C236813B198470023236010BD47
:1034D000C8270020044B054A1968054B1268C9002B
:1034E0000B4440325A607047B0270020AC270020C0
:1034F00010F50140034A044B12680449D2001344FA
:1035000059607047B027002010F5014010100040AE
:10351000034A044B12680449D200134459607047AF
:10352000B027002010F5014000100040034A044B72
:1035300012680449D200134459607047B027002034
:1035400010F5014008100040034A044B126804497A
:10355000D200134459607047B027002010F5014095
:1035600008100040034A044B12680449D200134477
:1035700059607047B027002010F501400810004046
:10358000034A044B12680449D2001344596070473F
:10359000B027002010F501400410004008B500F0ED
:1035A00047F9084B084A5B6812680849DB0003F1D9
:1035B000804303F5F83302F5A272C3F81025C3F86F
:1035C000141508BDB0270020AC27002000100040D3
:1035D00008B500F02DF9084B084A5B6812680849E5
:1035E000DB0003F1804303F5F83302F5A272C3F860
:1035F0001025C3F8141508BDB0270020AC27002003
:1036000004100040014B024A1A607047C82700208E
:10361000892B0000014B024A1A607047C82700201E
:10362000E12E0000074B084A5B6812680749DB007F
:1036300003F1804303F5F8334832C3F81015C3F89B
:1036400014257047B0270020AC270020041100404B
:10365000014B1860704700BFCC27002010B5134CF9
:103660002368E3B10320124C1249C3F80805002275
:103670000120C3F810252260D8600A70C3F84025E5
:10368000C3F84425C3F84825C3F84C25C3F84021A6
:10369000C3F84421C3F84821C3F84C2110BD784633
:1036A000714600F02DFA2368DCE700BFCC2700202C
:1036B000D82700203B470020044B1B680022C3F89A
:1036C0004021C3F84421C3F848217047CC2700208B
:1036D0000B4B0C491B6800220120D8600A70C3F80C
:1036E0004025C3F84425C3F84825C3F84C25C3F842
:1036F0004021C3F84421C3F84821C3F84C21704746
:10370000CC2700203B470020044B054A1B680121C1
:103710005960D3F840351360704700BFCC270020B4
:10372000D8270020024B1B68D3F84005704700BF24
:10373000CC270020034B1B68D3F840251044C3F866
:1037400040057047CC270020024B1B6801221A60FD
:10375000704700BFCC270020034B1B68D3F84C01F7
:10376000003818BF01207047CC270020014B18609B
:10377000704700BFD0270020064B00011B6829B10D
:10378000054A1268801AC3F84C057047C3F84C0507
:10379000704700BFCC270020D0270020074B1A78A5
:1037A00052B90749074A09681068D1F84C25024404
:1037B0000120C1F84C251870704700BF3B4700201E
:1037C000CC270020D027002010B5084C236802E049
:1037D000D3F84C211AB9D3F84021002AF8D0FFF7CA
:1037E0006FFE23680022C3F8402110BDCC270020C3
:1037F000044B05491B680022D3F848050860C3F84C
:1038000048257047CC270020D4270020064B186895
:1038100048B1064B1B68D3F848251AB1D3F8483590
:10382000181A704710467047D4270020CC27002074
:10383000054B1B680022C3F84421D3F840251044EF
:10384000C3F84405704700BFCC27002010B40428FB
:10385000514C8446A8BF4FF0040C84F800C0B8B1A6
:103860004E480C880480BCF1010F11D08C78847014
:10387000BCF1020FCC78C4700AD00C790471BCF191
:10388000040F4C79447103D18C79C9798471C17169
:103890004349102A1046A8BF10200870C2B35A0727
:1038A00039D1421E092A36D993ED007B3D4A82ED7B
:1038B000007B93ED027B82ED027B93ED047B82ED36
:1038C000047B93ED067B82ED067B93ED087B41083C
:1038D000052982ED087B12D093ED0A7B062982ED43
:1038E0000A7B0CD093ED0C7B082982ED0C7B06D172
:1038F000D3E90E01C2E90E015DF8044B704700F0F8
:10390000FE0130F0FE0003D053F8213042F82130A0
:103910005DF8044B7047234A196811600128F7D0FD
:10392000596851600228F3D0996891600328EFD05C
:10393000D968D1600428EBD0196911610528E7D056
:10394000596951610628E3D0996991610728DFD050
:10395000D969D1610828DBD0196A11620928D7D04A
:10396000596A51620A28D3D0996A91620B28CFD044
:10397000D96AD1620C28CBD0196B11630D28C7D03E
:10398000596B51630E28C3D01028996B08BFDB6BAD
:10399000916308BFD363BBE73E470020DC270020CC
:1039A0003D470020A8120020224B1878002840D064
:1039B00030B5214B214C19784FF0A04C01F5E07245
:1039C00001254CF8225093F801E01D4A0EF5A27E25
:1039D00042EA0121A84244F82E1029D0997801F535
:1039E000E07E02284CF82E5093F803E00EF5A27EFC
:1039F00042EA012144F82E101AD0197901F5E07E2F
:103A000003284CF82E5093F805E00EF5A27E42EA0A
:103A1000012144F82E100BD0997942EA012201F5D8
:103A2000E0714CF82150DB7903F5A27344F82320B0
:103A300030BD70473E470020DC270020006000407A
:103A400003001300204A2149214B12781B680020F3
:103A50000870002A36D030B41E491F4C4878DD0764
:103A600054BF18300C300125012A44F820504FEA89
:103A7000530025D010F0010FC878174C0CBF183038
:103A80000C300125022A44F820504FEA930017D049
:103A900010F0010F4879104C0CBF18300C30012584
:103AA000032A44F820504FEAD30309D013F0010F42
:103AB000CB79094A14BF0C331833012142F8231083
:103AC00030BC7047704700BF3E4700203C47002095
:103AD000A8120020DC2700200060004007280DD835
:103AE000DFE800F00A080604080604040420704712
:103AF0000320704702207047012070470020704764
:103B0000024BC3E9000100BE704700BFE42700205C
:103B100021F0C2BE00207047704700BF10B50446B8
:103B2000FFF7F6FF204610BD084600F013B800BFAF
:103B3000084600F00DB800BF024A03490348FFF7EA
:103B4000E9BF00BFCC6F0020193B00001C0500201E
:103B500021F088BE21F0A0BE70B5344E80EA50013D
:103B600006EA510301F055310B4403F033319B0851
:103B700003F03333194401F00F33090901F00F3119
:103B80000B4480EA900480EAD002294903F0FF1038
:103B90001B0A03F0FF1301EA5201184432400A44A1
:103BA000030C13FA80F002F03333920802F0333240
:103BB0001A4402F00F35120902F00F322A4402F0C3
:103BC000FF15120A02F0FF122A4406EA5403344099
:103BD0002344150C15FA82F59A0802F0333203F0EB
:103BE000333313441A0902F00F3203F00F33134436
:103BF0001A0A02F0FF1203F0FF13134440001C0CDA
:103C00001F3814FA83F435F025FA024660001E3896
:103C1000144635F01FFA6D000444A5F11D0035F07F
:103C200019FAE4B22044C0B270BD00BF5555551515
:103C30005555550510B50146304C006880EA4030B6
:103C400080EA504080EA4010C34300EA400203EAA1
:103C5000430302EA420203EA430302EA420203EA9E
:103C6000430302EA420203EA430302EA420203EA8E
:103C700043034FEAE06C02EA420203EA43038CEAA0
:103C8000A06C13430CF1FF3E2ED180EA6002530872
:103C900003F0553302F0553213449A0802F03332E0
:103CA00003F0333313441A0902F00F3203F00F33D9
:103CB00013441A0A02F0FF1203F0FF13134403EB3C
:103CC00013431EEA0C0F03F0FF030DD080EA040239
:103CD000182B1FFA80FC02F1FF3E05D8BCEB104FF9
:103CE00004D01EEA020FA9D1086010BD80EA10239B
:103CF00013F0FF1FF5D1086010BD00BFD6BE898E3E
:103D000000487047F49B030008B5044A0449034681
:103D10000448FCF70FFE044B187008BD683A0020F9
:103D2000903A0020843A00209C3A0020FCF700BE24
:103D30002DE9F047874C884E054694B0202200219B
:103D4000204635F07FF96B7863701C2200213046E5
:103D500035F078F92A78D5F81210D5F816006B8B63
:103D6000C6F80600C6F8021032702A7C7381AB6870
:103D7000F3602B7B33740DF104086B68727040465E
:103D80000193FFF757FF8246FFF7E6FE09248146BD
:103D90004046FFF74FFF0746FFF7DEFE631E48452C
:103DA0003CBF8146BA4613F0FF04F1D14046C6F845
:103DB00014A0FFF73FFF8246FFF7CEFE092481469D
:103DC0004046FFF737FF0746FFF7C6FE013C484570
:103DD0003CBF8146BA4614F0FF04F1D1C6F818A0E2
:103DE0006F685E494B22404635F01EF90DF14E02D8
:103DF0003B46C8F1010C83EA433383EA53430CEB9F
:103E0000020083EA4313B3FBF0F100FB113192F897
:103E100000E018F8010008F801E002F80109424545
:103E2000E9D14F4BDFF834E1A3FB0723DB0803EBB9
:103E30008303C3EB031314AAFB1A1344002113F8E2
:103E40004CCC724602E04A2B00F0818012F8010B44
:103E500084450B4601F10101F5D11EF80310404ADB
:103E600003F1190C3233A2FB0C80A2FB0382D208AF
:103E7000C00802EB8202C2EB021200EB80009B1A28
:103E8000C0EB0010DFF8E0801EF8033088F828301F
:103E9000ACEB000000231EF8002088F8142088F8FE
:103EA000013088F8153088F829302E4A6B7888F868
:103EB00000104F211180002B44D0012B38D102205B
:103EC000294B0DF1030203F2DC5C12F8011F83F8A9
:103ED0003D0083F83C1014339C45F6D1204B224919
:103EE0000137A3FB0723DB0803EB8303C3EB0313B7
:103EF000FF1A14AB3B441D4F13F84C3C88F818369E
:103F0000042388F8193640F22C62384635F08CF8D4
:103F1000174B32781A724F21164AC3F80480197071
:103F20002B7F576011703BB9204614B0BDE8F08775
:103F30002B7F0324002BF7D0FEF7BEFD204614B0E4
:103F4000BDE8F0872B7B002BF2D10120B8E70421DC
:103F5000002384E79C3A0020683A0020A89B0300D5
:103F6000B5814E1B28470020BC3A0020E8400020C5
:103F7000843A0020903A002010B50FC888B0EC4673
:103F80000A4CCDF812408CE80F00012308498DF847
:103F90001030072200236046CDF81610ADF81A2025
:103FA0008DF81C30FFF7C4FE08B010BD50000A00A9
:103FB0003C0028002DE9F0418AB0D0E90147067B9A
:103FC00090F800801C220021054603A835F03AF83D
:103FD0002D4BCDF80E302D4BCDF812300723ADF818
:103FE000163001A8012306978DF81C6001948DF806
:103FF0000D308DF80C80FFF71DFE0746FFF7ACFD76
:104000000924064601A8FFF715FE8046FFF7A4FD28
:10401000631EB0423CBF0646474613F0FF04F1D191
:1040200001A80897FFF706FE0746FFF795FD09244C
:10403000064601A8FFF7FEFD8046FFF78DFD631ED3
:10404000B0423CBF0646474613F0FF04F1D16B78FF
:1040500009970322019263B94B238DF805300123A0
:1040600003A901A88DF80830FEF7B8FB0AB0BDE837
:10407000F081012B03D14B238DF80630EFE720466A
:104080000AB0BDE8F08100BF50000A003C002800E3
:104090002DE9F84FD24CDFF85CB3D24FDFF84C83F8
:1040A000054640F2C452002134F0CCFF62782378F8
:1040B00085F8A02500214FF0004285F8BA1585F853
:1040C000B4359BF810006FF00043C4E90523FFF7F7
:1040D00005FD97F90C2097F920E097F90D1098F954
:1040E0000DC085F8B9C547F67F73A5F8B6357F2AA8
:1040F00098F90C3085F8B8151CBFD2B285F8B625F2
:104100007F2B1CBFDBB285F8B7357245C8BF5FFA9D
:104110008EF298F920E0C8BF85F8B6257345C8BF70
:104120005FFA8EF397F934E0C8BF85F8B735964546
:10413000B8BF5FFA8EF298F934E0B8BF85F8B625BB
:104140009E45BCBF5FFA8EF385F8B73512FA8CFC3A
:1041500013FA81F363445B1085F8B535A24B1B88D5
:10416000013B03EB8303002207EB8303C5F8BC2567
:1041700085F8C0251B79032B09D195F8BA25022AA9
:1041800098BF85F8BA35E36943F00403E361954BC2
:10419000964A9FED977A03F2DC514FF6FF7E4FF07F
:1041A000010C07E0012E00F099801433994202F1CE
:1041B00014027ED093F83D60022E00F0C180032EE1
:1041C000F0D1B3F9446007EE906A93F83C60F8EEE2
:1041D000E77A05EB8606C6ED007AB3F9467007EE7E
:1041E000907AF8EEE77AC6ED507AB2F9447007EEAD
:1041F000907AF8EEE77AC6EDA07AB2F9467007EE4B
:10420000907AF8EEE77AC6EDF07A93F848607E2E61
:1042100017D892F848607E2E13D81F6CD2F84080D1
:10422000D5F8BC65474596BF4644F619F61B95F888
:10423000C07588BFA6EB0806C5F8BC657E1C85F86E
:10424000C06593F84960022E00F0D680B3F944901F
:104250006669B3F94680B2F94470B2F946A0B14537
:1042600002DDC4F814904E46B045C4BF4646C4F8BB
:104270001480B742C4BF3E466761B245A669C8BF55
:10428000C4F814A0B145BCBF4E46C4F81890B04560
:10429000BCBF4646C4F81880B742BCBF3E46A761C3
:1042A000B24582DA14339942C4F818A002F114021C
:1042B00080D1A36913F5AF6F03DB6369B3F5AF6F0B
:1042C0000ADD95F8BA35012B9CBF022385F8BA3573
:1042D000E36943F02003E361BDE8F88F93F83C60A5
:1042E00005EB860686ED007A86ED507A86EDA07A9B
:1042F00086EDF07A93F842607E2E3FF656AF92F844
:1043000042607E2E3FF651AFB3F8406076453FF4F1
:104310004CAFB2F8407077453FF447AF9BF8009040
:10432000D5F8BC85B9F1010F0CBFF61BBE1B464486
:10433000C5F8BC6595F8C065013685F8C06534E7F9
:1043400093F83C6010B3B3F9407007EE907AF8EE42
:10435000E77A05EB8608C8ED007A4746B3F9448052
:1043600007EE908AF8EEE77AC7ED507AB2F940800E
:1043700007EE908AF8EEE77AC7EDA07AB2F94480AA
:1043800007EE908AF8EEE77AC7EDF07A2E4493F8BC
:104390004D7086F8007592F84D7086F8507593F858
:1043A0004C60022E3AD0012E03D1E66946F0100689
:1043B000E66192F84C60022E28D0012E03D1E66906
:1043C00046F08006E661B3F940906669B3F944802F
:1043D000B2F94070B2F944A0B1457FF745AF40E76C
:1043E0009C3A0020BC3A002028470020E8400020EA
:1043F00000000000683A002095F8BA650EB985F80B
:10440000BAC5E66946F00806E6611FE795F8BA65A1
:1044100066B1E66946F04006E661D4E795F8BA650C
:104420006EB1E66946F00806E661C2E7E66985F81E
:10443000BAC546F04006E66192F84C60BDE7E66911
:1044400085F8BAC546F00806E66193F84C60AAE71D
:1044500030B590F8B51590F8C025D0F8BC3587B0C8
:104460000024CDE90032CDE90214CDE9044405462B
:1044700000F2A4510346224690F8A005FBF758FE2F
:1044800005F2FF4105F24F5C224611F8013F541C32
:1044900013B991F8503003B1E2B28C45F5D1052A39
:1044A00028BF022007B030BD2DE9F00791E8F807DA
:1044B000B2E802105B1854EB0C04B2E802104D4154
:1044C00056EB0C06B2E802104F4158EB0C08B2E86C
:1044D000021059EB01095AEB0C0A80E8F8078041F9
:1044E0000130BDE8F00770472DE9F00791E8F807C3
:1044F000B2E802105B1A74EB0C04B2E802108D41B2
:1045000076EB0C06B2E802108F4178EB0C08B2E8AB
:10451000021079EB01097AEB0C0A80E8F807804178
:104520004042BDE8F00770472DE9F007524290E89D
:104530007800B1E880071740DB1918EA020854EB4D
:10454000080419EA020955EB09051AEA020A56EBB2
:104550000A0678C090E87800B1E8800717407B41F0
:1045600018EA020854EB080419EA020955EB090598
:104570001AEA020A56EB0A0678C080410130BDE80B
:10458000F00770472DE9F007524290E87800B1E853
:1045900080071740DB1B18EA020874EB080419EACD
:1045A000020975EB09051AEA020A76EB0A0678C0D9
:1045B00090E87800B1E880071740BB4118EA02088C
:1045C00074EB080419EA020975EB09051AEA020AF4
:1045D00076EB0A0678C080414042BDE8F00770479C
:1045E0002DE9F00152424FF0040890E8300091E8C4
:1045F000C000A31B1340E41AF618EB1B1340ED1A7E
:10460000FF1830C0C0C1B8F10108EED1BDE8F0011B
:10461000704700BF00B592EC080AB1E8805707EE7A
:10462000101A53EC102A56EC114AA7FB0251A8FBB2
:10463000020BE7FB6310E9FB62B041EC145AA8FBE4
:104640000351EAFB6201E7FB64B5E7FB6605E8FBA3
:10465000661505EE10BAA9FB03B6EAFB6316ECFB80
:104660006356E8FB640BE9FB641BEAFB645BECFB51
:10467000646B05EE900AACFB023012EE104AEEFBC2
:104680006250E9FB6460EAFB64B0E7FB6431E8FB7D
:10469000645112EE904AE8FB6461E9FB64B1EAFB05
:1046A000640106EE103AA7FB043213EE104AE7FB52
:1046B0006462E8FB64B2E9FB6402EAFB641211EE97
:1046C000904AE9FB6453EAFB646313EE904AE7FB0C
:1046D00064B3E8FB6403E9FB6413EAFB642306EEBE
:1046E000905A17EE109A99E8000610EE108AA9FB6E
:1046F0000854EAFB68B412EE108AECFB6804EEFB87
:104700006814E9FB6824EAFB683410EE908AEEFB3B
:104710006865E9FB68B5EAFB680512EE908AECFB78
:104720006815EEFB6825E9FB6835EAFB684507EE8E
:10473000106A11EE108AAEFB0876E9FB6806EAFB08
:10474000681613EE108AECFB6826EEFB6836E9FB70
:104750006846EAFB685611EE908AECFB68B7EEFB00
:104760006807E9FB6817EAFB682713EE908AECFB01
:104770006837EEFB6847E9FB6857EAFB686700BDEE
:104780002DE9F04F07EE900AFFF744FF17EE908AED
:1047900007EE90BAA8EC084A88E8FF00BDE8F08F61
:1047A00000B591E89857A3FB0352A3FB0401E3FB78
:1047B0006420E3FB671042EC145AA3FB0752E3FBAF
:1047C0006802E4FB6415E3FB6805E3FB6925A4FBD1
:1047D00007B6E3FB6926E3FB6A56E4FB670BE4FBE1
:1047E000682BE3FB6A5BE3FB6C6B40EC151AA4FBE4
:1047F0000810E4FB6950E3FB6C60E3FB6EB0E7FB81
:104800006721E4FB6951E4FB6A61E3FB6EB1E4FB01
:104810006E0106EE102AA7FB0832E4FB6A62E4FB95
:104820006CB2E4FB6E02E7FB6E12E7FB6853E7FB3A
:104830006963E4FB6CB3E7FB6C03E7FB6E13E8FB17
:104840006E2306EE905AA7FB0954E7FB6AB4E7FB18
:104850006C04E8FB6C14E8FB6E24E9FB6E34E8FBA7
:104860006865E7FB6AB5E8FB6A05E8FB6C15E9FBE0
:104870006C25E9FB6E35EAFB6E4507EE106AA8FB76
:104880000976E8FB6A06E9FB6A16E9FB6C26EAFB97
:104890006C36EAFB6E46ECFB6E56E8FB69B7E9FB4B
:1048A0006907E9FB6A17EAFB6A27EAFB6C37ECFB4E
:1048B0006C47ECFB6E57EEFB6E6700BD2DE9F04FC9
:1048C00007EE900AFFF76CFF17EE908A07EE90BA9A
:1048D000A8EC084A88E8FF00BDE8F08F30B44FF03C
:1048E000000310F8014B11F8015B013A84EA05045A
:1048F00043EA0403F5D1A3F101034FEAD37030BCBE
:10490000704700BF4FF0000310F8012B013943EA54
:104910000203F9D1A3F101034FEAD370704700BF3E
:1049200030B411F8014B12F8015B6C4000F8014BF8
:10493000013BF6D130BC70472DE9F00791E8F8074C
:10494000B2E802105B1854EB0C04B2E802104D41BF
:1049500056EB0C06B2E802104F4158EB0C08B2E8D7
:10496000021059EB01095AEB0C0A8941B3F1FF33EC
:1049700074F1FF3475F1FF3576F1000677F1000729
:1049800078F1000879F101097AF1FF3A51F100015B
:104990005B184C414D4156F1000657F1000758F1A4
:1049A000000859EBD1795AEB010A80E8F807BDE815
:1049B000F00770472DE9F00791E8F807B2E8021018
:1049C0005B1A74EB0C04B2E802108D4176EB0C0616
:1049D000B2E802108F4178EB0C08B2E8021079EBD4
:1049E00001097AEB0C0A89415B184C414D4156F1A3
:1049F000000657F1000758F1000859EBD1795AEB3E
:104A0000010A80E8F807BDE8F007704718EB0408D2
:104A100059EB05095AEB060A5BEB070B5FF0000C3C
:104A20004CF1000C18EB050859EB06095AEB070A84
:104A30005BEB070B50EB0C005FF0000C51EB0C0133
:104A400052EB0C0263414CF1000CB8EB070879F112
:104A500000097AF1000A7BEB040BA841B141A241A5
:104A6000B3416CF1000CBBEB050BB041B941AA415D
:104A7000BB416CF1000C4CF001068CF0020718EB06
:104A8000060859EB6C095AEB6C0A7BEB6C0B70EB6C
:104A90006C0471EB6C0572EB670653EB6C076CEB07
:104AA0006C0C18EB0C0059EB0C015AEB0C025BF18F
:104AB000000354F1000455F1000556EBDC7657EB8A
:104AC0000C0770472DE9F04F07EE900AFFF7A2FDA3
:104AD00059EC168A17EE10AAFFF798FF59EC148AC2
:104AE0005BEC15AAFFF792FF17EE908A88E8FF00AB
:104AF000BDE8F08F2DE9F04F07EE900AFFF750FE6A
:104B000059EC168A17EE10AAFFF780FF59EC148AA9
:104B10005BEC15AAFFF77AFF17EE908A88E8FF0092
:104B2000BDE8F08F074B1B78002B4FF0000383602C
:104B30000360054B436014BF02220122FF23C271B0
:104B400003727047E812002048010800064B074A2C
:104B50009B7802604FF426728280C3710822002382
:104B600082710372704700BFE8120020390D020005
:104B7000064B074ADB7802604FF442728280C371B1
:104B80000822002382710372704700BFE8120020E0
:104B90009D0B0200064B074A1B7902604FF4B87266
:104BA0008280C3710822FF2382710372704700BFA5
:104BB000E8120020E50602002DE9F743C41D002895
:104BC00024F00704064614BF2046002000F00AFD2A
:104BD000071E04DA6FF00B0003B0BDE8F0830EB9D6
:104BE000FC42F7D4354D297AE879AB7A6A7A0331F9
:104BF000033018F0BFF90028ECDBA978EB783C44CF
:104C00000334002E194424F0030400FB01F114BF07
:104C10002046002000F07CFE20440EB90028D9DB9D
:104C20002B790446B3B1697C19446B791944FF2987
:104C3000D0DC0330002E20F0030714BF38460020DC
:104C4000AA89C9B200F0D4FE041EC3DB3C440EB9ED
:104C5000002CBFDB012000F0BBFCC8B1E97AB9B180
:104C600095F828300734002B15BF402325234FF437
:104C70008172282224F00707002E14BF3846002036
:104C800006F002FC041EA5DB3C440EB9002CA1DB9F
:104C9000AB7BE3B12B799BB10734002E24F00707DF
:104CA00014BF38460020A97B0CF064FD041E91DB84
:104CB0003C4466B9002C0ADA8CE700BFE8120020F9
:104CC000012000F085FC10B1EB7A002BE4D1734B8E
:104CD0001B6893B1A97981B10334002E24F0030736
:104CE00014BF38460020EA7B9847041EFFF672AFD7
:104CF0003C4416B9002CFFF66DAF694B1B688BB1B5
:104D0000297C79B10334002E24F0030714BF384600
:104D100000209847041EFFF65DAF3C4416B9002CF6
:104D2000FFF658AF5F4BD3F80080B8F1000F15D0F5
:104D3000697C99B10334002E2B7D009324F0030786
:104D400014BF38460020EB7CAA7CC047041EFFF647
:104D500041AF3C4416B9002CFFF63CAF072000F0F1
:104D600037FC98B1A97989B10334002E24F00307E8
:104D700014BF38460020AA7D00F028FF041EFFF66D
:104D800029AF3C4416B9002CFFF624AF95F821005A
:104D9000B6FA86F84FEA5818A0B1EB7E297EE71CD8
:104DA00027F00707194447F0040743463A46C9B2BB
:104DB00000F04EFF041EFFF60DAF3C4416B9002C68
:104DC000FFF608AF95F82210002957D00734002EBF
:104DD00024F0070714BF38460020AA8C18F0DFF82B
:104DE000041EFFF6F7AE3C4416B9002CFFF6F2AEF7
:104DF0001EB1A98C384612F0C7FD297F00293FD08B
:104E000095F82030002B3BD0EA8B0734002E02F1BE
:104E1000240224F0070914BF4846002092B218F07B
:104E2000BEF8071EFFF6D6AE4F4416B9002FFFF6A8
:104E3000D1AEAB7E297E95F82000033727F0070717
:104E4000194447F0040743463A46C9B200F0F2FE5F
:104E5000041EFFF6BFAE3C4416B9002CFFF6BAAEF6
:104E600036B1EA8B297F083292B2484612F092FDA1
:104E7000EB6A5BB176B1EC620020ADE60F46B7E7B6
:104E8000002EF5D0002211461046EFE7002EF3D198
:104E90002046A1E62834FBD59CE600BF2005002073
:104EA00028050020240500201FB572B6184B1D6B85
:104EB000E5B9BFF34F8F1749174BCA6802F4E06298
:104EC0001343CB60BFF34F8F00BFFDE7B2FBF6F299
:104ED000DCB20133002AF9D104F110036B4403F86A
:104EE0000C2C0A2234B901A8A847E2E702460023A5
:104EF0000A26EDE7631E04AEDCB256FA83F3B0FB7C
:104F0000F2F602FB1600303003F80C0C3046E9E7ED
:104F1000E812002000ED00E00400FA0513B5114C82
:104F2000A37A8DF80130637A8DF80030237AADF8DA
:104F300004306846E379ADF802300AF049FC18B154
:104F4000D9210320FFF7B0FF207D0AF0A5FC08B1AE
:104F5000DC21F6E7E07C0AF099FC08B1DD21F0E7FE
:104F600002B010BDE812002038B5054600283ED03A
:104F700015F0BCFF10B94FF0FF3038BD1CF026F81B
:104F8000B0F5FA7FF7D81C4C1C482563002500F0CB
:104F900097FA26222946A01C84F83450257084F8FC
:104FA0002850E56216F0D6FB1B22E27140F21B325C
:104FB00040F20113228140F20232638062810123B8
:104FC0001F222371A281A3754FF40272F723E2819D
:104FD000E38344F60112FB236282A384EFF310847F
:104FE00072B600F045FE2CB962B62046C5E76FF0F8
:104FF0001500C2E72846C0E7E81200201D4F000058
:1050000038B51446002840F0B3805B4D95F8343035
:10501000032B00F0AA80B1B112B96FF0150038BDB2
:105020000139142900F2A480DFE801F00B1C1F2FC6
:1050300059627F356568793B414F54858896999CC4
:105040008E001378AB700020FFF7B6FD0028B7BFC5
:105050000123022385F834306FF00B00A8BF85F8D8
:105060003430DCE71378EB70EDE79378002BD4D085
:10507000D378002BD1D013781A2BCED953781A2B92
:10508000CBD91368C5F80730DDE713786A79934206
:10509000C3D32B71D7E713782A799342BDD86B71AC
:1050A000D1E713782A799342B7D86B74CBE713789A
:1050B000002BB2D05378013BDBB2F82BADD813886C
:1050C0006B822E4B92789A70BDE71078687510F05D
:1050D00013FDB8E71378002B9FD0AB75B3E7012021
:1050E00000F076FA237808B1012B96D9EB72AAE783
:1050F0001388AB81A7E71378AB71A4E7072000F012
:1051000067FA10B92378012B87D9072000F060FADD
:1051100010B12378002B80D02378EB7393E71378BA
:10512000082B3FF67AAF2B748DE71388FF2B3FF6E1
:1051300074AFAB7387E71378EB7584E713780E2BA6
:105140003FF66BAF2B767EE723680D4AEB61636811
:1051500053602389138176E713786B7673E71378AE
:10516000EB7670E71378AB766DE74FF0FF3056E7DC
:105170006FF02C0053E700BFE8120020FA12002065
:1051800004130020F8B50D46064630B329B311F0DC
:10519000070422D1124F97F83430012B02D16FF05F
:1051A0000B00F8BD032B02D14FF0FF30F9E700F000
:1051B000BBF80028F8D02846FFF7FEFC0028EEDBFD
:1051C0001BF072FE3046F96A0AF006FCFFF7A6FEF5
:1051D000032387F834302046E3E76FF01500E0E75B
:1051E000E812002010B5074C94F83430032B03D19B
:1051F0000AF00EFC0BF052FB18F017F8002084F8B0
:10520000340010BDE812002050B1074B03F1140226
:1052100053F8041B40F8041B9342F9D10020704757
:105220006FF01500704700BF02F8030010B5074B80
:1052300093F834403CB90AF07DFB0320044900F0A8
:10524000BFF9204610BD4FF0FF30FBE7E812002009
:10525000954B000010B5074B93F834403CB90AF069
:105260007DFB0220044900F0ABF9204610BD4FF051
:10527000FF30FBE7E8120020714B000038B50B4D02
:1052800095F8344074B90AF08BFB0949012000F00D
:1052900097F92046074900F093F9012385F8283053
:1052A000204638BD4FF0FF30FBE700BFE81200207A
:1052B000254B00004D4B000010B5054B93F83440D2
:1052C0001CB919F094F8204610BD4FF0FF30FBE7F1
:1052D000E812002010B5054B93F834401CB919F0C2
:1052E00089F8204610BD4FF0FF30FBE7E8120020A0
:1052F00010B5054B93F834401CB919F07DF82046E1
:1053000010BD4FF0FF30FBE7E8120020024B0268AF
:105310001A600020704700BF20130020014B1B685B
:10532000184700BF20130020024B1868003818BF30
:105330000120704720130020F7B52E4E0446071DAC
:105340002C4837600BF0CAFA0228054606D12949D5
:10535000204616F070FF284603B0F0BD042842D165
:105360003378092B0AD0252B1ED03146204616F063
:10537000C9FFB0F5817F2DD3722112E005213E20B7
:1053800016F02CFF0028F0D1F378327901A943EA16
:1053900002236846ADF8003017F0BCFB0028CFD0E0
:1053A00053210820FFF780FD1A213E2016F016FF3A
:1053B0000028DAD17368C3F30F23ADF804306946CF
:1053C000112301A88DF8063017F0CCFB0028B7D0C8
:1053D0006521E6E70028B3D0A178207816F0FEFE1C
:1053E0000028B8D1ACE70828B5D10249204616F00C
:1053F00051FFB0E724130020074B4FF0FF3141F677
:10540000FF72C3E9001205490022C1E900221F21F1
:10541000C3E90212704700BFC00400202814002016
:105420003F280CD801380B4BC0F3421200F01F008C
:1054300053F8223023FA00F000F001007047FF28F3
:1054400006D04038C0F34212034B00F01F00EFE7D4
:1054500001207047C0040020281400200146074B9B
:10546000006849681A4603C240F48C221A6041F071
:10547000107242F4FF625A60704700BFC0040020FF
:105480000246024B0068516803C37047281400208D
:105490000246024B0068516803C37047C8040020ED
:1054A0000138064BC0F3421203EB820300F01F00E9
:1054B0009B6823FA00F000F001007047C004002050
:1054C000014B1860704700BF3014002007B5FFF78C
:1054D00093FF18F078F9044B1B6813B101909847BB
:1054E000019803B05DF804FB301400200B8802889B
:1054F000F0B5C3F30E049EB204F11403C57CC35A85
:1055000002352A442B4497B213FA82F3013B4288B6
:10551000B3FBF7F313FB07439BB29A42044A93BFD2
:1055200022EA0603324013439BB20B80F0BD00BF5A
:105530000080FFFF08B54B1E062B04D84FF4D17135
:105540001520FFF7B1FC0A4B994202D940F2A31192
:10555000F6E719B900B10160084608BD28B1036833
:105560000022C3E901211A1D1A600431F4E700BFCB
:10557000FAFFFF7F10B5114B00EB41041A786389E5
:10558000B3FBF2F303FB0223013A1A44B2F5706F46
:10559000027928BF00231A448378B2FBF3F0194440
:1055A00003FB1020091AB1FBF3F003FB10131344A3
:1055B0006FEA43436FEA5343638110BD3414002004
:1055C000024B03EB80004160704700BF34140020A1
:1055D000034B03EB80004068003818BF0120704780
:1055E000341400202DE9F04F10F0070A85B005466D
:1055F00004D040F261111720FFF756FC554F07F118
:105600004006B1460446B0464FF0010B57F8043B44
:105610008DF80BA03BB101A898479DF80A30082BE4
:1056200001D9E821E7E79DF80B1081BB05B1316096
:10563000B94506F10406E9D12DB3DFF81CE10023DA
:105640008EF800301E460F2258F82200013A60B151
:1056500090F804A08178BAF1FF0F66D14FF00007EF
:105660008E4207713CBFCEB20123511CECD10BB16D
:105670008EF800600F2640F6FF6A58F82670002F5B
:1056800065D1013EF9D2601B05B0BDE8F08F9DF8F1
:105690000AC0BCF1020FE64601F1050238BF4FF027
:1056A000020E0EF1FF3004EB42040444CEF1000080
:1056B0002040BDF808406444013CCCF1000C04EAF1
:1056C0000C04B4F5803F4FEA420301D3F82192E77E
:1056D00075B1C31A336099701C8083F803B09DF8CC
:1056E0000C201A71019A1A814FEA124CA3F806C0D5
:1056F00004FB01049CE758F82C90B9F1000F06D088
:1057000099F804B0D34504BF99F802904F440CF1C6
:10571000FF3CBCF1000FEEDA3944FF29A0D90BB1F0
:105720008EF8006040F2271165E794460027F0E705
:1057300007EB41033846A3F80AA0FFF71BFF09F166
:105740000109BB785FFA89F18B42F1D899E74FF0F4
:105750000009F6E73814002034140020034B03EB53
:105760008000406C00B18078704700BF3414002086
:10577000F8B54FF6FF730380184B03EB8101054624
:10578000486CB8B186780379B3FBF6F206FB1233A6
:10579000DBB219460A1D00EB4202B2F902705488CE
:1057A000002F09DB0131B1FBF6F206FB1211C9B281
:1057B0008B42EFD10020F8BDFF29FBD0C4F30E03CC
:1057C000C4782B8024B94FF4D5711720FFF76CFBF8
:1057D0005380BDE8F84017F0ACBB00BF3414002084
:1057E0001D4B03EB810170B54C6C054644B30304BB
:1057F00004D54FF4DC711720FFF756FB0146204615
:1058000017F079FBFF28014604D02046BDE8704020
:1058100017F08FBBA078B5FBF0F300FB1353DBB29E
:1058200019460A1D04EB4206B6F90260002E09DB98
:105830000131B1FBF0F200FB1211C9B28B42F0D181
:10584000002070BDFF29FBD08B4204EB42021CBF3D
:105850000023E3705580D8E734140020094B03EB94
:10586000810110B54C6C0146204617F044FBFF281F
:10587000014604D02046BDE8104017F05ABB002076
:1058800010BD00BF34140020F8B5104B03EB8101AC
:1058900007464C6C0146204617F02DFBFF280546B5
:1058A00011D0E688238953EA064606D001462046F1
:1058B00017F03FFB01463846B04720462946FFF720
:1058C00059FE0020F8BD0520FCE700BF341400207D
:1058D00038B50E4B827903EB82030446586C08B945
:1058E000052038BD8278E1799142F9D24B1CE371F1
:1058F00000EB41035D89B3F90A30002BF3DBA5808F
:1059000017F017FB20600020EBE700BF34140020E5
:1059100070B5044610F003000E4603D04F21182046
:10592000FFF7C2FAFFF706FE054624B103483146E9
:105930000460FFF7FFFD284670BD00BFB8140020CB
:105940002DE9F3471C4C9DF82CA0904622681E467A
:1059500007469DF828300D461AB961211820FFF737
:10596000A3FA1A4609214046019317F04AF9524614
:105970001FFA80F90921304617F043F919FA80F12E
:10598000206817F08DFA019B386018B9286002B0C2
:10599000BDE8F08700EB09042C6038684146092215
:1059A00017F0E8F8286853460922314602B0BDE8EE
:1059B000F04717F0DFB800BFB814002070B50E46EE
:1059C000044617F031F90546304617F02DF9044B1F
:1059D0002A1821461868BDE8704017F085BA00BF44
:1059E000B8140020014B186817F04EBAB814002004
:1059F0001F2AF8B504460ED89200033222F00303A2
:105A0000B3F5803F2ED2194DB4B1A00711D05F215C
:105A10000920FFF749FAFF2A4FEA420304D9FF326F
:105A20009A42A8BF1A46E8E77C2BB8BF7C231A46E7
:105A3000E3E729706C602B8122F0030201EB810304
:105A40001204D80001276B68120C0025EEB28E42BA
:105A500000D3F8BD14B126181F705E6010440135E4
:105A60002833F3E74FF0FF30F3E700BFBC1400200A
:105A700038B5144A147853680021C8B2844203D858
:105A8000AB210920FFF710FA1846013105782833B9
:105A9000002DF2D0002181700124128944704468E5
:105AA0008161C161920800F12001051D21F8022BDE
:105AB000994245F8044B1444F8D100234361037024
:105AC00038BD00BFBC1400200A4B1B89B3F5FF7F13
:105AD0004FEA930006D25A089B1A9BB2984238BFED
